{"bytecode":"6080604052600280546001600160a01b031916732b88afc52addd2c75a669dde4353a9ec01dba43517905534801561003657600080fd5b50600080546001600160a01b031916339081178255604051909182917f8be0079c531659141344cd1fd0a4f28419497f9722a3daafe3b4186f6b6457e0908290a350600180546001600160a01b0319163390811782556000908152600760205260409020805460ff19169091179055611956806100b46000396000f3fe6080604052600436106101025760003560e01c80638f761e0911610095578063b79c48e511610064578063b79c48e51461031d578063bd9b20841461033d578063d42decac1461035d578063df8089ef1461037d578063f2fde38b1461039d57600080fd5b80638f761e09146102985780639dd3beee146102b8578063a4d3924c146102e8578063ae38dc87146102fd57600080fd5b806360238f25116100d157806360238f25146101f7578063715018a61461024557806372cf0d581461025a5780638da5cb5b1461027a57600080fd5b806309418eaf1461016b57806316967407146101a057806322b0adc3146101cd5780634efac329146101e257600080fd5b36610166576000805160206119018339815191526001600160a01b031663d0e30db0346040518263ffffffff1660e01b81526004016000604051808303818588803b15801561015057600080fd5b505af1158015610164573d6000803e3d6000fd5b005b600080fd5b34801561017757600080fd5b5061018b6101863660046115ab565b6103bd565b60405190151581526020015b60405180910390f35b3480156101ac57600080fd5b506101b5610416565b6040516001600160a01b039091168152602001610197565b3480156101d957600080fd5b506101b5610451565b3480156101ee57600080fd5b5061018b61048c565b34801561020357600080fd5b5061020c61087d565b604080516001600160a01b039687168152602081019590955292909416918301919091526060820152901515608082015260a001610197565b34801561025157600080fd5b506101646108f7565b34801561026657600080fd5b5061018b6102753660046115cf565b61096b565b34801561028657600080fd5b506000546001600160a01b03166101b5565b3480156102a457600080fd5b5061018b6102b3366004611617565b6109d9565b3480156102c457600080fd5b5061018b6102d33660046115ab565b60076020526000908152604090205460ff1681565b3480156102f457600080fd5b5061018b610b3f565b34801561030957600080fd5b506101646103183660046115ab565b610c05565b34801561032957600080fd5b5061018b610338366004611617565b610c53565b34801561034957600080fd5b5061018b610358366004611643565b611080565b34801561036957600080fd5b5061018b610378366004611643565b611287565b34801561038957600080fd5b5061018b6103983660046115ab565b611442565b3480156103a957600080fd5b506101646103b83660046115ab565b6114a9565b600080546001600160a01b031633146103f15760405162461bcd60e51b81526004016103e890611678565b60405180910390fd5b50600280546001600160a01b0383166001600160a01b03199091161790556001919050565b600080546001600160a01b031633146104415760405162461bcd60e51b81526004016103e890611678565b506001546001600160a01b031690565b600080546001600160a01b0316331461047c5760405162461bcd60e51b81526004016103e890611678565b506002546001600160a01b031690565b6003546040516370a0823160e01b815230600482015260009190600080516020611901833981519152906370a0823190602401602060405180830381865afa1580156104dc573d6000803e3d6000fd5b505050506040513d601f19601f8201168201806040525081019061050091906116ad565b101561055d5760405162461bcd60e51b815260206004820152602660248201527f736e6970653a206e6f7420656e6f7567682077626e62206f6e2074686520636f6044820152651b9d1c9858dd60d21b60648201526084016103e8565b60025460035460405163095ea7b360e01b81526001600160a01b03909216600483015260248201526000805160206119018339815191529063095ea7b3906044016020604051808303816000875af11580156105bd573d6000803e3d6000fd5b505050506040513d601f19601f820116820180604052508101906105e191906116c6565b50600654600160a01b900460ff161561064c5760405162461bcd60e51b815260206004820152602760248201527f736e6970653a20736e6970696e67206973206c6f636b65642e2053656520636f6044820152666e66696775726560c81b60648201526084016103e8565b6006805460ff60a01b198116600160a01b179091556060906001600160a01b03166000805160206119018339815191521461074b57604080516003808252608082019092529060208201606080368337019050509050600080516020611901833981519152816000815181106106c4576106c46116fe565b6001600160a01b0392831660209182029290920101526006548251911690829060019081106106f5576106f56116fe565b6001600160a01b039283166020918202929092010152600554825191169082906002908110610726576107266116fe565b60200260200101906001600160a01b031690816001600160a01b0316815250506107df565b60408051600280825260608201835290916020830190803683370190505090506000805160206119018339815191528160008151811061078d5761078d6116fe565b6001600160a01b0392831660209182029290920101526005548251911690829060019081106107be576107be6116fe565b60200260200101906001600160a01b031690816001600160a01b0316815250505b6002546003546004546001546001600160a01b0393841693635aeca58793929186911661080d426078611714565b6040518663ffffffff1660e01b815260040161082d959493929190611779565b6000604051808303816000875af115801561084c573d6000803e3d6000fd5b505050506040513d6000823e601f3d908101601f1916820160405261087491908101906117b5565b50600191505090565b600080808080336001600160a01b031661089f6000546001600160a01b031690565b6001600160a01b0316146108c55760405162461bcd60e51b81526004016103e890611678565b50506006546003546005546004546001600160a01b038085169893975090911694509250600160a01b90910460ff1690565b6000546001600160a01b031633146109215760405162461bcd60e51b81526004016103e890611678565b600080546040516001600160a01b03909116907f8be0079c531659141344cd1fd0a4f28419497f9722a3daafe3b4186f6b6457e0908390a3600080546001600160a01b0319169055565b600080546001600160a01b031633146109965760405162461bcd60e51b81526004016103e890611678565b5060068054600394909455600580546001600160a01b0319166001600160a01b0394851617905560049190915592166001600160a81b0319909116179055600190565b600080546001600160a01b03163314610a045760405162461bcd60e51b81526004016103e890611678565b6040516370a0823160e01b815230600482015282906001600160a01b038516906370a0823190602401602060405180830381865afa158015610a4a573d6000803e3d6000fd5b505050506040513d601f19601f82011682018060405250810190610a6e91906116ad565b1015610abc5760405162461bcd60e51b815260206004820152601d60248201527f6e6f7420656e6f75676820746f6b656e7320696e20636f6e747261637400000060448201526064016103e8565b60015460405163a9059cbb60e01b81526001600160a01b039182166004820152602481018490529084169063a9059cbb906044016020604051808303816000875af1158015610b0f573d6000803e3d6000fd5b505050506040513d601f19601f82011682018060405250810190610b3391906116c6565b50600190505b92915050565b600080546001600160a01b03163314610b6a5760405162461bcd60e51b81526004016103e890611678565b60004711610bc45760405162461bcd60e51b815260206004820152602160248201527f636f6e74726163742068617320616e20656d70747920424e422062616c616e636044820152606560f81b60648201526084016103e8565b6001546040516001600160a01b03909116904780156108fc02916000818181858888f19350505050158015610bfd573d6000803e3d6000fd5b506001905090565b6000546001600160a01b03163314610c2f5760405162461bcd60e51b81526004016103e890611678565b6001600160a01b03166000908152600760205260409020805460ff19166001179055565b3360009081526007602052604081205460ff161515600114610c875760405162461bcd60e51b81526004016103e890611873565b6040516370a0823160e01b81523060048201528290600080516020611901833981519152906370a0823190602401602060405180830381865afa158015610cd2573d6000803e3d6000fd5b505050506040513d601f19601f82011682018060405250810190610cf691906116ad565b1015610d145760405162461bcd60e51b81526004016103e8906118bd565b60025460405163095ea7b360e01b81526001600160a01b039091166004820152602481018390526000805160206119018339815191529063095ea7b3906044016020604051808303816000875af1158015610d73573d6000803e3d6000fd5b505050506040513d601f19601f82011682018060405250810190610d9791906116c6565b50604080516002808252606080830184529260208301908036833701905050905060008051602061190183398151915281600081518110610dda57610dda6116fe565b60200260200101906001600160a01b031690816001600160a01b0316815250508381600181518110610e0e57610e0e6116fe565b6001600160a01b03928316602091820292909201015260025460009116635aeca58785838530610e3f426078611714565b6040518663ffffffff1660e01b8152600401610e5f959493929190611779565b6000604051808303816000875af1158015610e7e573d6000803e3d6000fd5b505050506040513d6000823e601f3d908101601f19168201604052610ea691908101906117b5565b506040516370a0823160e01b81523060048201526001600160a01b038616906370a0823190602401602060405180830381865afa158015610eeb573d6000803e3d6000fd5b505050506040513d601f19601f82011682018060405250810190610f0f91906116ad565b60025460405163095ea7b360e01b81526001600160a01b0391821660048201526024810183905291955086169063095ea7b3906044016020604051808303816000875af1158015610f64573d6000803e3d6000fd5b505050506040513d601f19601f82011682018060405250810190610f8891906116c6565b508482600081518110610f9d57610f9d6116fe565b60200260200101906001600160a01b031690816001600160a01b03168152505060008051602061190183398151915282600181518110610fdf57610fdf6116fe565b6001600160a01b03928316602091820292909201015260025416635aeca5878583853061100d426078611714565b6040518663ffffffff1660e01b815260040161102d959493929190611779565b6000604051808303816000875af115801561104c573d6000803e3d6000fd5b505050506040513d6000823e601f3d908101601f1916820160405261107491908101906117b5565b50600195945050505050565b3360009081526007602052604081205460ff1615156001146110f85760405162461bcd60e51b815260206004820152602b60248201527f6f75743a206d7573742062652063616c6c65642062792061757468656e74696360448201526a30ba32b21039b2b63632b960a91b60648201526084016103e8565b8260000361116b576040516370a0823160e01b81523060048201526001600160a01b038516906370a0823190602401602060405180830381865afa158015611144573d6000803e3d6000fd5b505050506040513d601f19601f8201168201806040525081019061116891906116ad565b92505b60025460405163095ea7b360e01b81526001600160a01b039182166004820152602481018590529085169063095ea7b3906044016020604051808303816000875af11580156111be573d6000803e3d6000fd5b505050506040513d601f19601f820116820180604052508101906111e291906116c6565b5060408051600280825260608083018452926020830190803683370190505090508481600081518110611217576112176116fe565b60200260200101906001600160a01b031690816001600160a01b03168152505060008051602061190183398151915281600181518110611259576112596116fe565b6001600160a01b03928316602091820292909201015260025416635aeca5878585843061100d426078611714565b3360009081526007602052604081205460ff1615156001146112bb5760405162461bcd60e51b81526004016103e890611873565b6040516370a0823160e01b81523060048201528390600080516020611901833981519152906370a0823190602401602060405180830381865afa158015611306573d6000803e3d6000fd5b505050506040513d601f19601f8201168201806040525081019061132a91906116ad565b10156113485760405162461bcd60e51b81526004016103e8906118bd565b60025460405163095ea7b360e01b81526001600160a01b039091166004820152602481018490526000805160206119018339815191529063095ea7b3906044016020604051808303816000875af11580156113a7573d6000803e3d6000fd5b505050506040513d601f19601f820116820180604052508101906113cb91906116c6565b5060408051600280825260608083018452926020830190803683370190505090506000805160206119018339815191528160008151811061140e5761140e6116fe565b60200260200101906001600160a01b031690816001600160a01b0316815250508481600181518110611259576112596116fe565b600080546001600160a01b0316331461146d5760405162461bcd60e51b81526004016103e890611678565b50600180546001600160a01b0383166001600160a01b0319909116811782556000908152600760205260409020805460ff191682179055919050565b6000546001600160a01b031633146114d35760405162461bcd60e51b81526004016103e890611678565b6001600160a01b0381166115385760405162461bcd60e51b815260206004820152602660248201527f4f776e61626c653a206e6577206f776e657220697320746865207a65726f206160448201526564647265737360d01b60648201526084016103e8565b600080546040516001600160a01b03808516939216917f8be0079c531659141344cd1fd0a4f28419497f9722a3daafe3b4186f6b6457e091a3600080546001600160a01b0319166001600160a01b0392909216919091179055565b6001600160a01b03811681146115a857600080fd5b50565b6000602082840312156115bd57600080fd5b81356115c881611593565b9392505050565b600080600080608085870312156115e557600080fd5b84356115f081611593565b935060208501359250604085013561160781611593565b9396929550929360600135925050565b6000806040838503121561162a57600080fd5b823561163581611593565b946020939093013593505050565b60008060006060848603121561165857600080fd5b833561166381611593565b95602085013595506040909401359392505050565b6020808252818101527f4f776e61626c653a2063616c6c6572206973206e6f7420746865206f776e6572604082015260600190565b6000602082840312156116bf57600080fd5b5051919050565b6000602082840312156116d857600080fd5b815180151581146115c857600080fd5b634e487b7160e01b600052604160045260246000fd5b634e487b7160e01b600052603260045260246000fd5b80820180821115610b3957634e487b7160e01b600052601160045260246000fd5b600081518084526020808501945080840160005b8381101561176e5781516001600160a01b031687529582019590820190600101611749565b509495945050505050565b85815284602082015260a06040820152600061179860a0830186611735565b6001600160a01b0394909416606083015250608001529392505050565b600060208083850312156117c857600080fd5b825167ffffffffffffffff808211156117e057600080fd5b818501915085601f8301126117f457600080fd5b815181811115611806576118066116e8565b8060051b604051601f19603f8301168101818110858211171561182b5761182b6116e8565b60405291825284820192508381018501918883111561184957600080fd5b938501935b828510156118675784518452938501939285019261184e565b98975050505050505050565b6020808252602a908201527f696e3a206d7573742062652063616c6c65642062792061757468656e746963616040820152693a32b21039b2b63632b960b11b606082015260800190565b60208082526023908201527f696e3a206e6f7420656e6f7567682077626e62206f6e2074686520636f6e74726040820152621858dd60ea1b60608201526080019056fe000000000000000000000000bb4cdb9cbd36b01bd1cbaebf2de08d9173bc095ca264697066735822122045aeaf56c338956ec6e9f822fcaf0e3cb5d2230720cee97626d7a439753cb4ab64736f6c63430008110033","bytecodeSha1":"7100e9f26f0b0d471a17fac096a53d55f7f8d23d","type":"contract","abi":[{"inputs":[],"stateMutability":"nonpayable","type":"constructor","name":"constructor"},{"anonymous":false,"inputs":[{"indexed":true,"internalType":"address","name":"previousOwner","type":"address"},{"indexed":true,"internalType":"address","name":"newOwner","type":"address"}],"name":"OwnershipTransferred","type":"event"},{"inputs":[{"internalType":"address","name":"_seller","type":"address"}],"name":"authenticateSeller","outputs":[],"stateMutability":"nonpayable","type":"function"},{"inputs":[{"internalType":"address","name":"","type":"address"}],"name":"authenticatedSeller","outputs":[{"internalType":"bool","name":"","type":"bool"}],"stateMutability":"view","type":"function"},{"inputs":[{"internalType":"address","name":"_tokenPaired","type":"address"},{"internalType":"uint256","name":"_amountIn","type":"uint256"},{"internalType":"address","name":"_tknToBuy","type":"address"},{"internalType":"uint256","name":"_amountOutMin","type":"uint256"}],"name":"configureSnipe","outputs":[{"internalType":"bool","name":"success","type":"bool"}],"stateMutability":"nonpayable","type":"function"},{"inputs":[],"name":"emmergencyWithdrawBnb","outputs":[{"internalType":"bool","name":"success","type":"bool"}],"stateMutability":"nonpayable","type":"function"},{"inputs":[{"internalType":"address","name":"_token","type":"address"},{"internalType":"uint256","name":"_amount","type":"uint256"}],"name":"emmergencyWithdrawTkn","outputs":[{"internalType":"bool","name":"success","type":"bool"}],"stateMutability":"nonpayable","type":"function"},{"inputs":[],"name":"getAdministrator","outputs":[{"internalType":"address payable","name":"","type":"address"}],"stateMutability":"view","type":"function"},{"inputs":[],"name":"getSandwichRouter","outputs":[{"internalType":"address","name":"","type":"address"}],"stateMutability":"view","type":"function"},{"inputs":[],"name":"getSnipeConfiguration","outputs":[{"internalType":"address","name":"","type":"address"},{"internalType":"uint256","name":"","type":"uint256"},{"internalType":"address","name":"","type":"address"},{"internalType":"uint256","name":"","type":"uint256"},{"internalType":"bool","name":"","type":"bool"}],"stateMutability":"view","type":"function"},{"inputs":[],"name":"owner","outputs":[{"internalType":"address","name":"","type":"address"}],"stateMutability":"view","type":"function"},{"inputs":[],"name":"renounceOwnership","outputs":[],"stateMutability":"nonpayable","type":"function"},{"inputs":[{"internalType":"address payable","name":"_newAdmin","type":"address"}],"name":"setAdministrator","outputs":[{"internalType":"bool","name":"success","type":"bool"}],"stateMutability":"nonpayable","type":"function"},{"inputs":[{"internalType":"address","name":"_newRouter","type":"address"}],"name":"setSandwichRouter","outputs":[{"internalType":"bool","name":"success","type":"bool"}],"stateMutability":"nonpayable","type":"function"},{"inputs":[],"name":"snipeListing","outputs":[{"internalType":"bool","name":"success","type":"bool"}],"stateMutability":"nonpayable","type":"function"},{"inputs":[{"internalType":"address","name":"tokenOut","type":"address"},{"internalType":"uint256","name":"amountIn","type":"uint256"},{"internalType":"uint256","name":"amountOutMin","type":"uint256"}],"name":"swapETHForExactTokens","outputs":[{"internalType":"bool","name":"success","type":"bool"}],"stateMutability":"nonpayable","type":"function"},{"inputs":[{"internalType":"address","name":"tokenOut","type":"address"},{"internalType":"uint256","name":"amountIn","type":"uint256"}],"name":"swapExactETHForTokens","outputs":[{"internalType":"bool","name":"success","type":"bool"}],"stateMutability":"nonpayable","type":"function"},{"inputs":[{"internalType":"address","name":"tokenIn","type":"address"},{"internalType":"uint256","name":"amountIn","type":"uint256"},{"internalType":"uint256","name":"amountOutMin","type":"uint256"}],"name":"swapTokensForExactETH","outputs":[{"internalType":"bool","name":"success","type":"bool"}],"stateMutability":"nonpayable","type":"function"},{"inputs":[{"internalType":"address","name":"newOwner","type":"address"}],"name":"transferOwnership","outputs":[],"stateMutability":"nonpayable","type":"function"},{"stateMutability":"payable","type":"receive"}],"compiler":{"version":"0.8.17+commit.8df45f5f","evm_version":"istanbul","optimizer":{"enabled":true,"runs":200}},"contractName":"Trigger2","language":"Solidity","natspec":{"methods":{"owner()":{"details":"Returns the address of the current owner."},"renounceOwnership()":{"details":"Leaves the contract without owner. It will not be possible to call `onlyOwner` functions anymore. Can only be called by the current owner. NOTE: Renouncing ownership will leave the contract without an owner, thereby removing any functionality that is only available to the owner."},"transferOwnership(address)":{"details":"Transfers ownership of the contract to a new account (`newOwner`). Can only be called by the current owner."}},"kind":"dev","version":1},"opcodes":"PUSH1 0x80 PUSH1 0x40 MSTORE PUSH1 0x4 CALLDATASIZE LT PUSH2 0x102 JUMPI PUSH1 0x0 CALLDATALOAD PUSH1 0xE0 SHR DUP1 PUSH4 0x8F761E09 GT PUSH2 0x95 JUMPI DUP1 PUSH4 0xB79C48E5 GT PUSH2 0x64 JUMPI DUP1 PUSH4 0xB79C48E5 EQ PUSH2 0x31D JUMPI DUP1 PUSH4 0xBD9B2084 EQ PUSH2 0x33D JUMPI DUP1 PUSH4 0xD42DECAC EQ PUSH2 0x35D JUMPI DUP1 PUSH4 0xDF8089EF EQ PUSH2 0x37D JUMPI DUP1 PUSH4 0xF2FDE38B EQ PUSH2 0x39D JUMPI PUSH1 0x0 DUP1 REVERT JUMPDEST DUP1 PUSH4 0x8F761E09 EQ PUSH2 0x298 JUMPI DUP1 PUSH4 0x9DD3BEEE EQ PUSH2 0x2B8 JUMPI DUP1 PUSH4 0xA4D3924C EQ PUSH2 0x2E8 JUMPI DUP1 PUSH4 0xAE38DC87 EQ PUSH2 0x2FD JUMPI PUSH1 0x0 DUP1 REVERT JUMPDEST DUP1 PUSH4 0x60238F25 GT PUSH2 0xD1 JUMPI DUP1 PUSH4 0x60238F25 EQ PUSH2 0x1F7 JUMPI DUP1 PUSH4 0x715018A6 EQ PUSH2 0x245 JUMPI DUP1 PUSH4 0x72CF0D58 EQ PUSH2 0x25A JUMPI DUP1 PUSH4 0x8DA5CB5B EQ PUSH2 0x27A JUMPI PUSH1 0x0 DUP1 REVERT JUMPDEST DUP1 PUSH4 0x9418EAF EQ PUSH2 0x16B JUMPI DUP1 PUSH4 0x16967407 EQ PUSH2 0x1A0 JUMPI DUP1 PUSH4 0x22B0ADC3 EQ PUSH2 0x1CD JUMPI DUP1 PUSH4 0x4EFAC329 EQ PUSH2 0x1E2 JUMPI PUSH1 0x0 DUP1 REVERT JUMPDEST CALLDATASIZE PUSH2 0x166 JUMPI PUSH1 0x0 DUP1 MLOAD PUSH1 0x20 PUSH2 0x1901 DUP4 CODECOPY DUP2 MLOAD SWAP2 MSTORE PUSH1 0x1 PUSH1 0x1 PUSH1 0xA0 SHL SUB AND PUSH4 0xD0E30DB0 CALLVALUE PUSH1 0x40 MLOAD DUP3 PUSH4 0xFFFFFFFF AND PUSH1 0xE0 SHL DUP2 MSTORE PUSH1 0x4 ADD PUSH1 0x0 PUSH1 0x40 MLOAD DUP1 DUP4 SUB DUP2 DUP6 DUP9 DUP1 EXTCODESIZE ISZERO DUP1 ISZERO PUSH2 0x150 JUMPI PUSH1 0x0 DUP1 REVERT JUMPDEST POP GAS CALL ISZERO DUP1 ISZERO PUSH2 0x164 JUMPI RETURNDATASIZE PUSH1 0x0 DUP1 RETURNDATACOPY RETURNDATASIZE PUSH1 0x0 REVERT JUMPDEST STOP JUMPDEST PUSH1 0x0 DUP1 REVERT JUMPDEST CALLVALUE DUP1 ISZERO PUSH2 0x177 JUMPI PUSH1 0x0 DUP1 REVERT JUMPDEST POP PUSH2 0x18B PUSH2 0x186 CALLDATASIZE PUSH1 0x4 PUSH2 0x15AB JUMP JUMPDEST PUSH2 0x3BD JUMP JUMPDEST PUSH1 0x40 MLOAD SWAP1 ISZERO ISZERO DUP2 MSTORE PUSH1 0x20 ADD JUMPDEST PUSH1 0x40 MLOAD DUP1 SWAP2 SUB SWAP1 RETURN JUMPDEST CALLVALUE DUP1 ISZERO PUSH2 0x1AC JUMPI PUSH1 0x0 DUP1 REVERT JUMPDEST POP PUSH2 0x1B5 PUSH2 0x416 JUMP JUMPDEST PUSH1 0x40 MLOAD PUSH1 0x1 PUSH1 0x1 PUSH1 0xA0 SHL SUB SWAP1 SWAP2 AND DUP2 MSTORE PUSH1 0x20 ADD PUSH2 0x197 JUMP JUMPDEST CALLVALUE DUP1 ISZERO PUSH2 0x1D9 JUMPI PUSH1 0x0 DUP1 REVERT JUMPDEST POP PUSH2 0x1B5 PUSH2 0x451 JUMP JUMPDEST CALLVALUE DUP1 ISZERO PUSH2 0x1EE JUMPI PUSH1 0x0 DUP1 REVERT JUMPDEST POP PUSH2 0x18B PUSH2 0x48C JUMP JUMPDEST CALLVALUE DUP1 ISZERO PUSH2 0x203 JUMPI PUSH1 0x0 DUP1 REVERT JUMPDEST POP PUSH2 0x20C PUSH2 0x87D JUMP JUMPDEST PUSH1 0x40 DUP1 MLOAD PUSH1 0x1 PUSH1 0x1 PUSH1 0xA0 SHL SUB SWAP7 DUP8 AND DUP2 MSTORE PUSH1 0x20 DUP2 ADD SWAP6 SWAP1 SWAP6 MSTORE SWAP3 SWAP1 SWAP5 AND SWAP2 DUP4 ADD SWAP2 SWAP1 SWAP2 MSTORE PUSH1 0x60 DUP3 ADD MSTORE SWAP1 ISZERO ISZERO PUSH1 0x80 DUP3 ADD MSTORE PUSH1 0xA0 ADD PUSH2 0x197 JUMP JUMPDEST CALLVALUE DUP1 ISZERO PUSH2 0x251 JUMPI PUSH1 0x0 DUP1 REVERT JUMPDEST POP PUSH2 0x164 PUSH2 0x8F7 JUMP JUMPDEST CALLVALUE DUP1 ISZERO PUSH2 0x266 JUMPI PUSH1 0x0 DUP1 REVERT JUMPDEST POP PUSH2 0x18B PUSH2 0x275 CALLDATASIZE PUSH1 0x4 PUSH2 0x15CF JUMP JUMPDEST PUSH2 0x96B JUMP JUMPDEST CALLVALUE DUP1 ISZERO PUSH2 0x286 JUMPI PUSH1 0x0 DUP1 REVERT JUMPDEST POP PUSH1 0x0 SLOAD PUSH1 0x1 PUSH1 0x1 PUSH1 0xA0 SHL SUB AND PUSH2 0x1B5 JUMP JUMPDEST CALLVALUE DUP1 ISZERO PUSH2 0x2A4 JUMPI PUSH1 0x0 DUP1 REVERT JUMPDEST POP PUSH2 0x18B PUSH2 0x2B3 CALLDATASIZE PUSH1 0x4 PUSH2 0x1617 JUMP JUMPDEST PUSH2 0x9D9 JUMP JUMPDEST CALLVALUE DUP1 ISZERO PUSH2 0x2C4 JUMPI PUSH1 0x0 DUP1 REVERT JUMPDEST POP PUSH2 0x18B PUSH2 0x2D3 CALLDATASIZE PUSH1 0x4 PUSH2 0x15AB JUMP JUMPDEST PUSH1 0x7 PUSH1 0x20 MSTORE PUSH1 0x0 SWAP1 DUP2 MSTORE PUSH1 0x40 SWAP1 KECCAK256 SLOAD PUSH1 0xFF AND DUP2 JUMP JUMPDEST CALLVALUE DUP1 ISZERO PUSH2 0x2F4 JUMPI PUSH1 0x0 DUP1 REVERT JUMPDEST POP PUSH2 0x18B PUSH2 0xB3F JUMP JUMPDEST CALLVALUE DUP1 ISZERO PUSH2 0x309 JUMPI PUSH1 0x0 DUP1 REVERT JUMPDEST POP PUSH2 0x164 PUSH2 0x318 CALLDATASIZE PUSH1 0x4 PUSH2 0x15AB JUMP JUMPDEST PUSH2 0xC05 JUMP JUMPDEST CALLVALUE DUP1 ISZERO PUSH2 0x329 JUMPI PUSH1 0x0 DUP1 REVERT JUMPDEST POP PUSH2 0x18B PUSH2 0x338 CALLDATASIZE PUSH1 0x4 PUSH2 0x1617 JUMP JUMPDEST PUSH2 0xC53 JUMP JUMPDEST CALLVALUE DUP1 ISZERO PUSH2 0x349 JUMPI PUSH1 0x0 DUP1 REVERT JUMPDEST POP PUSH2 0x18B PUSH2 0x358 CALLDATASIZE PUSH1 0x4 PUSH2 0x1643 JUMP JUMPDEST PUSH2 0x1080 JUMP JUMPDEST CALLVALUE DUP1 ISZERO PUSH2 0x369 JUMPI PUSH1 0x0 DUP1 REVERT JUMPDEST POP PUSH2 0x18B PUSH2 0x378 CALLDATASIZE PUSH1 0x4 PUSH2 0x1643 JUMP JUMPDEST PUSH2 0x1287 JUMP JUMPDEST CALLVALUE DUP1 ISZERO PUSH2 0x389 JUMPI PUSH1 0x0 DUP1 REVERT JUMPDEST POP PUSH2 0x18B PUSH2 0x398 CALLDATASIZE PUSH1 0x4 PUSH2 0x15AB JUMP JUMPDEST PUSH2 0x1442 JUMP JUMPDEST CALLVALUE DUP1 ISZERO PUSH2 0x3A9 JUMPI PUSH1 0x0 DUP1 REVERT JUMPDEST POP PUSH2 0x164 PUSH2 0x3B8 CALLDATASIZE PUSH1 0x4 PUSH2 0x15AB JUMP JUMPDEST PUSH2 0x14A9 JUMP JUMPDEST PUSH1 0x0 DUP1 SLOAD PUSH1 0x1 PUSH1 0x1 PUSH1 0xA0 SHL SUB AND CALLER EQ PUSH2 0x3F1 JUMPI PUSH1 0x40 MLOAD PUSH3 0x461BCD PUSH1 0xE5 SHL DUP2 MSTORE PUSH1 0x4 ADD PUSH2 0x3E8 SWAP1 PUSH2 0x1678 JUMP JUMPDEST PUSH1 0x40 MLOAD DUP1 SWAP2 SUB SWAP1 REVERT JUMPDEST POP PUSH1 0x2 DUP1 SLOAD PUSH1 0x1 PUSH1 0x1 PUSH1 0xA0 SHL SUB DUP4 AND PUSH1 0x1 PUSH1 0x1 PUSH1 0xA0 SHL SUB NOT SWAP1 SWAP2 AND OR SWAP1 SSTORE PUSH1 0x1 SWAP2 SWAP1 POP JUMP JUMPDEST PUSH1 0x0 DUP1 SLOAD PUSH1 0x1 PUSH1 0x1 PUSH1 0xA0 SHL SUB AND CALLER EQ PUSH2 0x441 JUMPI PUSH1 0x40 MLOAD PUSH3 0x461BCD PUSH1 0xE5 SHL DUP2 MSTORE PUSH1 0x4 ADD PUSH2 0x3E8 SWAP1 PUSH2 0x1678 JUMP JUMPDEST POP PUSH1 0x1 SLOAD PUSH1 0x1 PUSH1 0x1 PUSH1 0xA0 SHL SUB AND SWAP1 JUMP JUMPDEST PUSH1 0x0 DUP1 SLOAD PUSH1 0x1 PUSH1 0x1 PUSH1 0xA0 SHL SUB AND CALLER EQ PUSH2 0x47C JUMPI PUSH1 0x40 MLOAD PUSH3 0x461BCD PUSH1 0xE5 SHL DUP2 MSTORE PUSH1 0x4 ADD PUSH2 0x3E8 SWAP1 PUSH2 0x1678 JUMP JUMPDEST POP PUSH1 0x2 SLOAD PUSH1 0x1 PUSH1 0x1 PUSH1 0xA0 SHL SUB AND SWAP1 JUMP JUMPDEST PUSH1 0x3 SLOAD PUSH1 0x40 MLOAD PUSH4 0x70A08231 PUSH1 0xE0 SHL DUP2 MSTORE ADDRESS PUSH1 0x4 DUP3 ADD MSTORE PUSH1 0x0 SWAP2 SWAP1 PUSH1 0x0 DUP1 MLOAD PUSH1 0x20 PUSH2 0x1901 DUP4 CODECOPY DUP2 MLOAD SWAP2 MSTORE SWAP1 PUSH4 0x70A08231 SWAP1 PUSH1 0x24 ADD PUSH1 0x20 PUSH1 0x40 MLOAD DUP1 DUP4 SUB DUP2 DUP7 GAS STATICCALL ISZERO DUP1 ISZERO PUSH2 0x4DC JUMPI RETURNDATASIZE PUSH1 0x0 DUP1 RETURNDATACOPY RETURNDATASIZE PUSH1 0x0 REVERT JUMPDEST POP POP POP POP PUSH1 0x40 MLOAD RETURNDATASIZE PUSH1 0x1F NOT PUSH1 0x1F DUP3 ADD AND DUP3 ADD DUP1 PUSH1 0x40 MSTORE POP DUP2 ADD SWAP1 PUSH2 0x500 SWAP2 SWAP1 PUSH2 0x16AD JUMP JUMPDEST LT ISZERO PUSH2 0x55D JUMPI PUSH1 0x40 MLOAD PUSH3 0x461BCD PUSH1 0xE5 SHL DUP2 MSTORE PUSH1 0x20 PUSH1 0x4 DUP3 ADD MSTORE PUSH1 0x26 PUSH1 0x24 DUP3 ADD MSTORE PUSH32 0x736E6970653A206E6F7420656E6F7567682077626E62206F6E2074686520636F PUSH1 0x44 DUP3 ADD MSTORE PUSH6 0x1B9D1C9858DD PUSH1 0xD2 SHL PUSH1 0x64 DUP3 ADD MSTORE PUSH1 0x84 ADD PUSH2 0x3E8 JUMP JUMPDEST PUSH1 0x2 SLOAD PUSH1 0x3 SLOAD PUSH1 0x40 MLOAD PUSH4 0x95EA7B3 PUSH1 0xE0 SHL DUP2 MSTORE PUSH1 0x1 PUSH1 0x1 PUSH1 0xA0 SHL SUB SWAP1 SWAP3 AND PUSH1 0x4 DUP4 ADD MSTORE PUSH1 0x24 DUP3 ADD MSTORE PUSH1 0x0 DUP1 MLOAD PUSH1 0x20 PUSH2 0x1901 DUP4 CODECOPY DUP2 MLOAD SWAP2 MSTORE SWAP1 PUSH4 0x95EA7B3 SWAP1 PUSH1 0x44 ADD PUSH1 0x20 PUSH1 0x40 MLOAD DUP1 DUP4 SUB DUP2 PUSH1 0x0 DUP8 GAS CALL ISZERO DUP1 ISZERO PUSH2 0x5BD JUMPI RETURNDATASIZE PUSH1 0x0 DUP1 RETURNDATACOPY RETURNDATASIZE PUSH1 0x0 REVERT JUMPDEST POP POP POP POP PUSH1 0x40 MLOAD RETURNDATASIZE PUSH1 0x1F NOT PUSH1 0x1F DUP3 ADD AND DUP3 ADD DUP1 PUSH1 0x40 MSTORE POP DUP2 ADD SWAP1 PUSH2 0x5E1 SWAP2 SWAP1 PUSH2 0x16C6 JUMP JUMPDEST POP PUSH1 0x6 SLOAD PUSH1 0x1 PUSH1 0xA0 SHL SWAP1 DIV PUSH1 0xFF AND ISZERO PUSH2 0x64C JUMPI PUSH1 0x40 MLOAD PUSH3 0x461BCD PUSH1 0xE5 SHL DUP2 MSTORE PUSH1 0x20 PUSH1 0x4 DUP3 ADD MSTORE PUSH1 0x27 PUSH1 0x24 DUP3 ADD MSTORE PUSH32 0x736E6970653A20736E6970696E67206973206C6F636B65642E2053656520636F PUSH1 0x44 DUP3 ADD MSTORE PUSH7 0x6E666967757265 PUSH1 0xC8 SHL PUSH1 0x64 DUP3 ADD MSTORE PUSH1 0x84 ADD PUSH2 0x3E8 JUMP JUMPDEST PUSH1 0x6 DUP1 SLOAD PUSH1 0xFF PUSH1 0xA0 SHL NOT DUP2 AND PUSH1 0x1 PUSH1 0xA0 SHL OR SWAP1 SWAP2 SSTORE PUSH1 0x60 SWAP1 PUSH1 0x1 PUSH1 0x1 PUSH1 0xA0 SHL SUB AND PUSH1 0x0 DUP1 MLOAD PUSH1 0x20 PUSH2 0x1901 DUP4 CODECOPY DUP2 MLOAD SWAP2 MSTORE EQ PUSH2 0x74B JUMPI PUSH1 0x40 DUP1 MLOAD PUSH1 0x3 DUP1 DUP3 MSTORE PUSH1 0x80 DUP3 ADD SWAP1 SWAP3 MSTORE SWAP1 PUSH1 0x20 DUP3 ADD PUSH1 0x60 DUP1 CALLDATASIZE DUP4 CALLDATACOPY ADD SWAP1 POP POP SWAP1 POP PUSH1 0x0 DUP1 MLOAD PUSH1 0x20 PUSH2 0x1901 DUP4 CODECOPY DUP2 MLOAD SWAP2 MSTORE DUP2 PUSH1 0x0 DUP2 MLOAD DUP2 LT PUSH2 0x6C4 JUMPI PUSH2 0x6C4 PUSH2 0x16FE JUMP JUMPDEST PUSH1 0x1 PUSH1 0x1 PUSH1 0xA0 SHL SUB SWAP3 DUP4 AND PUSH1 0x20 SWAP2 DUP3 MUL SWAP3 SWAP1 SWAP3 ADD ADD MSTORE PUSH1 0x6 SLOAD DUP3 MLOAD SWAP2 AND SWAP1 DUP3 SWAP1 PUSH1 0x1 SWAP1 DUP2 LT PUSH2 0x6F5 JUMPI PUSH2 0x6F5 PUSH2 0x16FE JUMP JUMPDEST PUSH1 0x1 PUSH1 0x1 PUSH1 0xA0 SHL SUB SWAP3 DUP4 AND PUSH1 0x20 SWAP2 DUP3 MUL SWAP3 SWAP1 SWAP3 ADD ADD MSTORE PUSH1 0x5 SLOAD DUP3 MLOAD SWAP2 AND SWAP1 DUP3 SWAP1 PUSH1 0x2 SWAP1 DUP2 LT PUSH2 0x726 JUMPI PUSH2 0x726 PUSH2 0x16FE JUMP JUMPDEST PUSH1 0x20 MUL PUSH1 0x20 ADD ADD SWAP1 PUSH1 0x1 PUSH1 0x1 PUSH1 0xA0 SHL SUB AND SWAP1 DUP2 PUSH1 0x1 PUSH1 0x1 PUSH1 0xA0 SHL SUB AND DUP2 MSTORE POP POP PUSH2 0x7DF JUMP JUMPDEST PUSH1 0x40 DUP1 MLOAD PUSH1 0x2 DUP1 DUP3 MSTORE PUSH1 0x60 DUP3 ADD DUP4 MSTORE SWAP1 SWAP2 PUSH1 0x20 DUP4 ADD SWAP1 DUP1 CALLDATASIZE DUP4 CALLDATACOPY ADD SWAP1 POP POP SWAP1 POP PUSH1 0x0 DUP1 MLOAD PUSH1 0x20 PUSH2 0x1901 DUP4 CODECOPY DUP2 MLOAD SWAP2 MSTORE DUP2 PUSH1 0x0 DUP2 MLOAD DUP2 LT PUSH2 0x78D JUMPI PUSH2 0x78D PUSH2 0x16FE JUMP JUMPDEST PUSH1 0x1 PUSH1 0x1 PUSH1 0xA0 SHL SUB SWAP3 DUP4 AND PUSH1 0x20 SWAP2 DUP3 MUL SWAP3 SWAP1 SWAP3 ADD ADD MSTORE PUSH1 0x5 SLOAD DUP3 MLOAD SWAP2 AND SWAP1 DUP3 SWAP1 PUSH1 0x1 SWAP1 DUP2 LT PUSH2 0x7BE JUMPI PUSH2 0x7BE PUSH2 0x16FE JUMP JUMPDEST PUSH1 0x20 MUL PUSH1 0x20 ADD ADD SWAP1 PUSH1 0x1 PUSH1 0x1 PUSH1 0xA0 SHL SUB AND SWAP1 DUP2 PUSH1 0x1 PUSH1 0x1 PUSH1 0xA0 SHL SUB AND DUP2 MSTORE POP POP JUMPDEST PUSH1 0x2 SLOAD PUSH1 0x3 SLOAD PUSH1 0x4 SLOAD PUSH1 0x1 SLOAD PUSH1 0x1 PUSH1 0x1 PUSH1 0xA0 SHL SUB SWAP4 DUP5 AND SWAP4 PUSH4 0x5AECA587 SWAP4 SWAP3 SWAP2 DUP7 SWAP2 AND PUSH2 0x80D TIMESTAMP PUSH1 0x78 PUSH2 0x1714 JUMP JUMPDEST PUSH1 0x40 MLOAD DUP7 PUSH4 0xFFFFFFFF AND PUSH1 0xE0 SHL DUP2 MSTORE PUSH1 0x4 ADD PUSH2 0x82D SWAP6 SWAP5 SWAP4 SWAP3 SWAP2 SWAP1 PUSH2 0x1779 JUMP JUMPDEST PUSH1 0x0 PUSH1 0x40 MLOAD DUP1 DUP4 SUB DUP2 PUSH1 0x0 DUP8 GAS CALL ISZERO DUP1 ISZERO PUSH2 0x84C JUMPI RETURNDATASIZE PUSH1 0x0 DUP1 RETURNDATACOPY RETURNDATASIZE PUSH1 0x0 REVERT JUMPDEST POP POP POP POP PUSH1 0x40 MLOAD RETURNDATASIZE PUSH1 0x0 DUP3 RETURNDATACOPY PUSH1 0x1F RETURNDATASIZE SWAP1 DUP2 ADD PUSH1 0x1F NOT AND DUP3 ADD PUSH1 0x40 MSTORE PUSH2 0x874 SWAP2 SWAP1 DUP2 ADD SWAP1 PUSH2 0x17B5 JUMP JUMPDEST POP PUSH1 0x1 SWAP2 POP POP SWAP1 JUMP JUMPDEST PUSH1 0x0 DUP1 DUP1 DUP1 DUP1 CALLER PUSH1 0x1 PUSH1 0x1 PUSH1 0xA0 SHL SUB AND PUSH2 0x89F PUSH1 0x0 SLOAD PUSH1 0x1 PUSH1 0x1 PUSH1 0xA0 SHL SUB AND SWAP1 JUMP JUMPDEST PUSH1 0x1 PUSH1 0x1 PUSH1 0xA0 SHL SUB AND EQ PUSH2 0x8C5 JUMPI PUSH1 0x40 MLOAD PUSH3 0x461BCD PUSH1 0xE5 SHL DUP2 MSTORE PUSH1 0x4 ADD PUSH2 0x3E8 SWAP1 PUSH2 0x1678 JUMP JUMPDEST POP POP PUSH1 0x6 SLOAD PUSH1 0x3 SLOAD PUSH1 0x5 SLOAD PUSH1 0x4 SLOAD PUSH1 0x1 PUSH1 0x1 PUSH1 0xA0 SHL SUB DUP1 DUP6 AND SWAP9 SWAP4 SWAP8 POP SWAP1 SWAP2 AND SWAP5 POP SWAP3 POP PUSH1 0x1 PUSH1 0xA0 SHL SWAP1 SWAP2 DIV PUSH1 0xFF AND SWAP1 JUMP JUMPDEST PUSH1 0x0 SLOAD PUSH1 0x1 PUSH1 0x1 PUSH1 0xA0 SHL SUB AND CALLER EQ PUSH2 0x921 JUMPI PUSH1 0x40 MLOAD PUSH3 0x461BCD PUSH1 0xE5 SHL DUP2 MSTORE PUSH1 0x4 ADD PUSH2 0x3E8 SWAP1 PUSH2 0x1678 JUMP JUMPDEST PUSH1 0x0 DUP1 SLOAD PUSH1 0x40 MLOAD PUSH1 0x1 PUSH1 0x1 PUSH1 0xA0 SHL SUB SWAP1 SWAP2 AND SWAP1 PUSH32 0x8BE0079C531659141344CD1FD0A4F28419497F9722A3DAAFE3B4186F6B6457E0 SWAP1 DUP4 SWAP1 LOG3 PUSH1 0x0 DUP1 SLOAD PUSH1 0x1 PUSH1 0x1 PUSH1 0xA0 SHL SUB NOT AND SWAP1 SSTORE JUMP JUMPDEST PUSH1 0x0 DUP1 SLOAD PUSH1 0x1 PUSH1 0x1 PUSH1 0xA0 SHL SUB AND CALLER EQ PUSH2 0x996 JUMPI PUSH1 0x40 MLOAD PUSH3 0x461BCD PUSH1 0xE5 SHL DUP2 MSTORE PUSH1 0x4 ADD PUSH2 0x3E8 SWAP1 PUSH2 0x1678 JUMP JUMPDEST POP PUSH1 0x6 DUP1 SLOAD PUSH1 0x3 SWAP5 SWAP1 SWAP5 SSTORE PUSH1 0x5 DUP1 SLOAD PUSH1 0x1 PUSH1 0x1 PUSH1 0xA0 SHL SUB NOT AND PUSH1 0x1 PUSH1 0x1 PUSH1 0xA0 SHL SUB SWAP5 DUP6 AND OR SWAP1 SSTORE PUSH1 0x4 SWAP2 SWAP1 SWAP2 SSTORE SWAP3 AND PUSH1 0x1 PUSH1 0x1 PUSH1 0xA8 SHL SUB NOT SWAP1 SWAP2 AND OR SWAP1 SSTORE PUSH1 0x1 SWAP1 JUMP JUMPDEST PUSH1 0x0 DUP1 SLOAD PUSH1 0x1 PUSH1 0x1 PUSH1 0xA0 SHL SUB AND CALLER EQ PUSH2 0xA04 JUMPI PUSH1 0x40 MLOAD PUSH3 0x461BCD PUSH1 0xE5 SHL DUP2 MSTORE PUSH1 0x4 ADD PUSH2 0x3E8 SWAP1 PUSH2 0x1678 JUMP JUMPDEST PUSH1 0x40 MLOAD PUSH4 0x70A08231 PUSH1 0xE0 SHL DUP2 MSTORE ADDRESS PUSH1 0x4 DUP3 ADD MSTORE DUP3 SWAP1 PUSH1 0x1 PUSH1 0x1 PUSH1 0xA0 SHL SUB DUP6 AND SWAP1 PUSH4 0x70A08231 SWAP1 PUSH1 0x24 ADD PUSH1 0x20 PUSH1 0x40 MLOAD DUP1 DUP4 SUB DUP2 DUP7 GAS STATICCALL ISZERO DUP1 ISZERO PUSH2 0xA4A JUMPI RETURNDATASIZE PUSH1 0x0 DUP1 RETURNDATACOPY RETURNDATASIZE PUSH1 0x0 REVERT JUMPDEST POP POP POP POP PUSH1 0x40 MLOAD RETURNDATASIZE PUSH1 0x1F NOT PUSH1 0x1F DUP3 ADD AND DUP3 ADD DUP1 PUSH1 0x40 MSTORE POP DUP2 ADD SWAP1 PUSH2 0xA6E SWAP2 SWAP1 PUSH2 0x16AD JUMP JUMPDEST LT ISZERO PUSH2 0xABC JUMPI PUSH1 0x40 MLOAD PUSH3 0x461BCD PUSH1 0xE5 SHL DUP2 MSTORE PUSH1 0x20 PUSH1 0x4 DUP3 ADD MSTORE PUSH1 0x1D PUSH1 0x24 DUP3 ADD MSTORE PUSH32 0x6E6F7420656E6F75676820746F6B656E7320696E20636F6E7472616374000000 PUSH1 0x44 DUP3 ADD MSTORE PUSH1 0x64 ADD PUSH2 0x3E8 JUMP JUMPDEST PUSH1 0x1 SLOAD PUSH1 0x40 MLOAD PUSH4 0xA9059CBB PUSH1 0xE0 SHL DUP2 MSTORE PUSH1 0x1 PUSH1 0x1 PUSH1 0xA0 SHL SUB SWAP2 DUP3 AND PUSH1 0x4 DUP3 ADD MSTORE PUSH1 0x24 DUP2 ADD DUP5 SWAP1 MSTORE SWAP1 DUP5 AND SWAP1 PUSH4 0xA9059CBB SWAP1 PUSH1 0x44 ADD PUSH1 0x20 PUSH1 0x40 MLOAD DUP1 DUP4 SUB DUP2 PUSH1 0x0 DUP8 GAS CALL ISZERO DUP1 ISZERO PUSH2 0xB0F JUMPI RETURNDATASIZE PUSH1 0x0 DUP1 RETURNDATACOPY RETURNDATASIZE PUSH1 0x0 REVERT JUMPDEST POP POP POP POP PUSH1 0x40 MLOAD RETURNDATASIZE PUSH1 0x1F NOT PUSH1 0x1F DUP3 ADD AND DUP3 ADD DUP1 PUSH1 0x40 MSTORE POP DUP2 ADD SWAP1 PUSH2 0xB33 SWAP2 SWAP1 PUSH2 0x16C6 JUMP JUMPDEST POP PUSH1 0x1 SWAP1 POP JUMPDEST SWAP3 SWAP2 POP POP JUMP JUMPDEST PUSH1 0x0 DUP1 SLOAD PUSH1 0x1 PUSH1 0x1 PUSH1 0xA0 SHL SUB AND CALLER EQ PUSH2 0xB6A JUMPI PUSH1 0x40 MLOAD PUSH3 0x461BCD PUSH1 0xE5 SHL DUP2 MSTORE PUSH1 0x4 ADD PUSH2 0x3E8 SWAP1 PUSH2 0x1678 JUMP JUMPDEST PUSH1 0x0 SELFBALANCE GT PUSH2 0xBC4 JUMPI PUSH1 0x40 MLOAD PUSH3 0x461BCD PUSH1 0xE5 SHL DUP2 MSTORE PUSH1 0x20 PUSH1 0x4 DUP3 ADD MSTORE PUSH1 0x21 PUSH1 0x24 DUP3 ADD MSTORE PUSH32 0x636F6E74726163742068617320616E20656D70747920424E422062616C616E63 PUSH1 0x44 DUP3 ADD MSTORE PUSH1 0x65 PUSH1 0xF8 SHL PUSH1 0x64 DUP3 ADD MSTORE PUSH1 0x84 ADD PUSH2 0x3E8 JUMP JUMPDEST PUSH1 0x1 SLOAD PUSH1 0x40 MLOAD PUSH1 0x1 PUSH1 0x1 PUSH1 0xA0 SHL SUB SWAP1 SWAP2 AND SWAP1 SELFBALANCE DUP1 ISZERO PUSH2 0x8FC MUL SWAP2 PUSH1 0x0 DUP2 DUP2 DUP2 DUP6 DUP9 DUP9 CALL SWAP4 POP POP POP POP ISZERO DUP1 ISZERO PUSH2 0xBFD JUMPI RETURNDATASIZE PUSH1 0x0 DUP1 RETURNDATACOPY RETURNDATASIZE PUSH1 0x0 REVERT JUMPDEST POP PUSH1 0x1 SWAP1 POP SWAP1 JUMP JUMPDEST PUSH1 0x0 SLOAD PUSH1 0x1 PUSH1 0x1 PUSH1 0xA0 SHL SUB AND CALLER EQ PUSH2 0xC2F JUMPI PUSH1 0x40 MLOAD PUSH3 0x461BCD PUSH1 0xE5 SHL DUP2 MSTORE PUSH1 0x4 ADD PUSH2 0x3E8 SWAP1 PUSH2 0x1678 JUMP JUMPDEST PUSH1 0x1 PUSH1 0x1 PUSH1 0xA0 SHL SUB AND PUSH1 0x0 SWAP1 DUP2 MSTORE PUSH1 0x7 PUSH1 0x20 MSTORE PUSH1 0x40 SWAP1 KECCAK256 DUP1 SLOAD PUSH1 0xFF NOT AND PUSH1 0x1 OR SWAP1 SSTORE JUMP JUMPDEST CALLER PUSH1 0x0 SWAP1 DUP2 MSTORE PUSH1 0x7 PUSH1 0x20 MSTORE PUSH1 0x40 DUP2 KECCAK256 SLOAD PUSH1 0xFF AND ISZERO ISZERO PUSH1 0x1 EQ PUSH2 0xC87 JUMPI PUSH1 0x40 MLOAD PUSH3 0x461BCD PUSH1 0xE5 SHL DUP2 MSTORE PUSH1 0x4 ADD PUSH2 0x3E8 SWAP1 PUSH2 0x1873 JUMP JUMPDEST PUSH1 0x40 MLOAD PUSH4 0x70A08231 PUSH1 0xE0 SHL DUP2 MSTORE ADDRESS PUSH1 0x4 DUP3 ADD MSTORE DUP3 SWAP1 PUSH1 0x0 DUP1 MLOAD PUSH1 0x20 PUSH2 0x1901 DUP4 CODECOPY DUP2 MLOAD SWAP2 MSTORE SWAP1 PUSH4 0x70A08231 SWAP1 PUSH1 0x24 ADD PUSH1 0x20 PUSH1 0x40 MLOAD DUP1 DUP4 SUB DUP2 DUP7 GAS STATICCALL ISZERO DUP1 ISZERO PUSH2 0xCD2 JUMPI RETURNDATASIZE PUSH1 0x0 DUP1 RETURNDATACOPY RETURNDATASIZE PUSH1 0x0 REVERT JUMPDEST POP POP POP POP PUSH1 0x40 MLOAD RETURNDATASIZE PUSH1 0x1F NOT PUSH1 0x1F DUP3 ADD AND DUP3 ADD DUP1 PUSH1 0x40 MSTORE POP DUP2 ADD SWAP1 PUSH2 0xCF6 SWAP2 SWAP1 PUSH2 0x16AD JUMP JUMPDEST LT ISZERO PUSH2 0xD14 JUMPI PUSH1 0x40 MLOAD PUSH3 0x461BCD PUSH1 0xE5 SHL DUP2 MSTORE PUSH1 0x4 ADD PUSH2 0x3E8 SWAP1 PUSH2 0x18BD JUMP JUMPDEST PUSH1 0x2 SLOAD PUSH1 0x40 MLOAD PUSH4 0x95EA7B3 PUSH1 0xE0 SHL DUP2 MSTORE PUSH1 0x1 PUSH1 0x1 PUSH1 0xA0 SHL SUB SWAP1 SWAP2 AND PUSH1 0x4 DUP3 ADD MSTORE PUSH1 0x24 DUP2 ADD DUP4 SWAP1 MSTORE PUSH1 0x0 DUP1 MLOAD PUSH1 0x20 PUSH2 0x1901 DUP4 CODECOPY DUP2 MLOAD SWAP2 MSTORE SWAP1 PUSH4 0x95EA7B3 SWAP1 PUSH1 0x44 ADD PUSH1 0x20 PUSH1 0x40 MLOAD DUP1 DUP4 SUB DUP2 PUSH1 0x0 DUP8 GAS CALL ISZERO DUP1 ISZERO PUSH2 0xD73 JUMPI RETURNDATASIZE PUSH1 0x0 DUP1 RETURNDATACOPY RETURNDATASIZE PUSH1 0x0 REVERT JUMPDEST POP POP POP POP PUSH1 0x40 MLOAD RETURNDATASIZE PUSH1 0x1F NOT PUSH1 0x1F DUP3 ADD AND DUP3 ADD DUP1 PUSH1 0x40 MSTORE POP DUP2 ADD SWAP1 PUSH2 0xD97 SWAP2 SWAP1 PUSH2 0x16C6 JUMP JUMPDEST POP PUSH1 0x40 DUP1 MLOAD PUSH1 0x2 DUP1 DUP3 MSTORE PUSH1 0x60 DUP1 DUP4 ADD DUP5 MSTORE SWAP3 PUSH1 0x20 DUP4 ADD SWAP1 DUP1 CALLDATASIZE DUP4 CALLDATACOPY ADD SWAP1 POP POP SWAP1 POP PUSH1 0x0 DUP1 MLOAD PUSH1 0x20 PUSH2 0x1901 DUP4 CODECOPY DUP2 MLOAD SWAP2 MSTORE DUP2 PUSH1 0x0 DUP2 MLOAD DUP2 LT PUSH2 0xDDA JUMPI PUSH2 0xDDA PUSH2 0x16FE JUMP JUMPDEST PUSH1 0x20 MUL PUSH1 0x20 ADD ADD SWAP1 PUSH1 0x1 PUSH1 0x1 PUSH1 0xA0 SHL SUB AND SWAP1 DUP2 PUSH1 0x1 PUSH1 0x1 PUSH1 0xA0 SHL SUB AND DUP2 MSTORE POP POP DUP4 DUP2 PUSH1 0x1 DUP2 MLOAD DUP2 LT PUSH2 0xE0E JUMPI PUSH2 0xE0E PUSH2 0x16FE JUMP JUMPDEST PUSH1 0x1 PUSH1 0x1 PUSH1 0xA0 SHL SUB SWAP3 DUP4 AND PUSH1 0x20 SWAP2 DUP3 MUL SWAP3 SWAP1 SWAP3 ADD ADD MSTORE PUSH1 0x2 SLOAD PUSH1 0x0 SWAP2 AND PUSH4 0x5AECA587 DUP6 DUP4 DUP6 ADDRESS PUSH2 0xE3F TIMESTAMP PUSH1 0x78 PUSH2 0x1714 JUMP JUMPDEST PUSH1 0x40 MLOAD DUP7 PUSH4 0xFFFFFFFF AND PUSH1 0xE0 SHL DUP2 MSTORE PUSH1 0x4 ADD PUSH2 0xE5F SWAP6 SWAP5 SWAP4 SWAP3 SWAP2 SWAP1 PUSH2 0x1779 JUMP JUMPDEST PUSH1 0x0 PUSH1 0x40 MLOAD DUP1 DUP4 SUB DUP2 PUSH1 0x0 DUP8 GAS CALL ISZERO DUP1 ISZERO PUSH2 0xE7E JUMPI RETURNDATASIZE PUSH1 0x0 DUP1 RETURNDATACOPY RETURNDATASIZE PUSH1 0x0 REVERT JUMPDEST POP POP POP POP PUSH1 0x40 MLOAD RETURNDATASIZE PUSH1 0x0 DUP3 RETURNDATACOPY PUSH1 0x1F RETURNDATASIZE SWAP1 DUP2 ADD PUSH1 0x1F NOT AND DUP3 ADD PUSH1 0x40 MSTORE PUSH2 0xEA6 SWAP2 SWAP1 DUP2 ADD SWAP1 PUSH2 0x17B5 JUMP JUMPDEST POP PUSH1 0x40 MLOAD PUSH4 0x70A08231 PUSH1 0xE0 SHL DUP2 MSTORE ADDRESS PUSH1 0x4 DUP3 ADD MSTORE PUSH1 0x1 PUSH1 0x1 PUSH1 0xA0 SHL SUB DUP7 AND SWAP1 PUSH4 0x70A08231 SWAP1 PUSH1 0x24 ADD PUSH1 0x20 PUSH1 0x40 MLOAD DUP1 DUP4 SUB DUP2 DUP7 GAS STATICCALL ISZERO DUP1 ISZERO PUSH2 0xEEB JUMPI RETURNDATASIZE PUSH1 0x0 DUP1 RETURNDATACOPY RETURNDATASIZE PUSH1 0x0 REVERT JUMPDEST POP POP POP POP PUSH1 0x40 MLOAD RETURNDATASIZE PUSH1 0x1F NOT PUSH1 0x1F DUP3 ADD AND DUP3 ADD DUP1 PUSH1 0x40 MSTORE POP DUP2 ADD SWAP1 PUSH2 0xF0F SWAP2 SWAP1 PUSH2 0x16AD JUMP JUMPDEST PUSH1 0x2 SLOAD PUSH1 0x40 MLOAD PUSH4 0x95EA7B3 PUSH1 0xE0 SHL DUP2 MSTORE PUSH1 0x1 PUSH1 0x1 PUSH1 0xA0 SHL SUB SWAP2 DUP3 AND PUSH1 0x4 DUP3 ADD MSTORE PUSH1 0x24 DUP2 ADD DUP4 SWAP1 MSTORE SWAP2 SWAP6 POP DUP7 AND SWAP1 PUSH4 0x95EA7B3 SWAP1 PUSH1 0x44 ADD PUSH1 0x20 PUSH1 0x40 MLOAD DUP1 DUP4 SUB DUP2 PUSH1 0x0 DUP8 GAS CALL ISZERO DUP1 ISZERO PUSH2 0xF64 JUMPI RETURNDATASIZE PUSH1 0x0 DUP1 RETURNDATACOPY RETURNDATASIZE PUSH1 0x0 REVERT JUMPDEST POP POP POP POP PUSH1 0x40 MLOAD RETURNDATASIZE PUSH1 0x1F NOT PUSH1 0x1F DUP3 ADD AND DUP3 ADD DUP1 PUSH1 0x40 MSTORE POP DUP2 ADD SWAP1 PUSH2 0xF88 SWAP2 SWAP1 PUSH2 0x16C6 JUMP JUMPDEST POP DUP5 DUP3 PUSH1 0x0 DUP2 MLOAD DUP2 LT PUSH2 0xF9D JUMPI PUSH2 0xF9D PUSH2 0x16FE JUMP JUMPDEST PUSH1 0x20 MUL PUSH1 0x20 ADD ADD SWAP1 PUSH1 0x1 PUSH1 0x1 PUSH1 0xA0 SHL SUB AND SWAP1 DUP2 PUSH1 0x1 PUSH1 0x1 PUSH1 0xA0 SHL SUB AND DUP2 MSTORE POP POP PUSH1 0x0 DUP1 MLOAD PUSH1 0x20 PUSH2 0x1901 DUP4 CODECOPY DUP2 MLOAD SWAP2 MSTORE DUP3 PUSH1 0x1 DUP2 MLOAD DUP2 LT PUSH2 0xFDF JUMPI PUSH2 0xFDF PUSH2 0x16FE JUMP JUMPDEST PUSH1 0x1 PUSH1 0x1 PUSH1 0xA0 SHL SUB SWAP3 DUP4 AND PUSH1 0x20 SWAP2 DUP3 MUL SWAP3 SWAP1 SWAP3 ADD ADD MSTORE PUSH1 0x2 SLOAD AND PUSH4 0x5AECA587 DUP6 DUP4 DUP6 ADDRESS PUSH2 0x100D TIMESTAMP PUSH1 0x78 PUSH2 0x1714 JUMP JUMPDEST PUSH1 0x40 MLOAD DUP7 PUSH4 0xFFFFFFFF AND PUSH1 0xE0 SHL DUP2 MSTORE PUSH1 0x4 ADD PUSH2 0x102D SWAP6 SWAP5 SWAP4 SWAP3 SWAP2 SWAP1 PUSH2 0x1779 JUMP JUMPDEST PUSH1 0x0 PUSH1 0x40 MLOAD DUP1 DUP4 SUB DUP2 PUSH1 0x0 DUP8 GAS CALL ISZERO DUP1 ISZERO PUSH2 0x104C JUMPI RETURNDATASIZE PUSH1 0x0 DUP1 RETURNDATACOPY RETURNDATASIZE PUSH1 0x0 REVERT JUMPDEST POP POP POP POP PUSH1 0x40 MLOAD RETURNDATASIZE PUSH1 0x0 DUP3 RETURNDATACOPY PUSH1 0x1F RETURNDATASIZE SWAP1 DUP2 ADD PUSH1 0x1F NOT AND DUP3 ADD PUSH1 0x40 MSTORE PUSH2 0x1074 SWAP2 SWAP1 DUP2 ADD SWAP1 PUSH2 0x17B5 JUMP JUMPDEST POP PUSH1 0x1 SWAP6 SWAP5 POP POP POP POP POP JUMP JUMPDEST CALLER PUSH1 0x0 SWAP1 DUP2 MSTORE PUSH1 0x7 PUSH1 0x20 MSTORE PUSH1 0x40 DUP2 KECCAK256 SLOAD PUSH1 0xFF AND ISZERO ISZERO PUSH1 0x1 EQ PUSH2 0x10F8 JUMPI PUSH1 0x40 MLOAD PUSH3 0x461BCD PUSH1 0xE5 SHL DUP2 MSTORE PUSH1 0x20 PUSH1 0x4 DUP3 ADD MSTORE PUSH1 0x2B PUSH1 0x24 DUP3 ADD MSTORE PUSH32 0x6F75743A206D7573742062652063616C6C65642062792061757468656E746963 PUSH1 0x44 DUP3 ADD MSTORE PUSH11 0x30BA32B21039B2B63632B9 PUSH1 0xA9 SHL PUSH1 0x64 DUP3 ADD MSTORE PUSH1 0x84 ADD PUSH2 0x3E8 JUMP JUMPDEST DUP3 PUSH1 0x0 SUB PUSH2 0x116B JUMPI PUSH1 0x40 MLOAD PUSH4 0x70A08231 PUSH1 0xE0 SHL DUP2 MSTORE ADDRESS PUSH1 0x4 DUP3 ADD MSTORE PUSH1 0x1 PUSH1 0x1 PUSH1 0xA0 SHL SUB DUP6 AND SWAP1 PUSH4 0x70A08231 SWAP1 PUSH1 0x24 ADD PUSH1 0x20 PUSH1 0x40 MLOAD DUP1 DUP4 SUB DUP2 DUP7 GAS STATICCALL ISZERO DUP1 ISZERO PUSH2 0x1144 JUMPI RETURNDATASIZE PUSH1 0x0 DUP1 RETURNDATACOPY RETURNDATASIZE PUSH1 0x0 REVERT JUMPDEST POP POP POP POP PUSH1 0x40 MLOAD RETURNDATASIZE PUSH1 0x1F NOT PUSH1 0x1F DUP3 ADD AND DUP3 ADD DUP1 PUSH1 0x40 MSTORE POP DUP2 ADD SWAP1 PUSH2 0x1168 SWAP2 SWAP1 PUSH2 0x16AD JUMP JUMPDEST SWAP3 POP JUMPDEST PUSH1 0x2 SLOAD PUSH1 0x40 MLOAD PUSH4 0x95EA7B3 PUSH1 0xE0 SHL DUP2 MSTORE PUSH1 0x1 PUSH1 0x1 PUSH1 0xA0 SHL SUB SWAP2 DUP3 AND PUSH1 0x4 DUP3 ADD MSTORE PUSH1 0x24 DUP2 ADD DUP6 SWAP1 MSTORE SWAP1 DUP6 AND SWAP1 PUSH4 0x95EA7B3 SWAP1 PUSH1 0x44 ADD PUSH1 0x20 PUSH1 0x40 MLOAD DUP1 DUP4 SUB DUP2 PUSH1 0x0 DUP8 GAS CALL ISZERO DUP1 ISZERO PUSH2 0x11BE JUMPI RETURNDATASIZE PUSH1 0x0 DUP1 RETURNDATACOPY RETURNDATASIZE PUSH1 0x0 REVERT JUMPDEST POP POP POP POP PUSH1 0x40 MLOAD RETURNDATASIZE PUSH1 0x1F NOT PUSH1 0x1F DUP3 ADD AND DUP3 ADD DUP1 PUSH1 0x40 MSTORE POP DUP2 ADD SWAP1 PUSH2 0x11E2 SWAP2 SWAP1 PUSH2 0x16C6 JUMP JUMPDEST POP PUSH1 0x40 DUP1 MLOAD PUSH1 0x2 DUP1 DUP3 MSTORE PUSH1 0x60 DUP1 DUP4 ADD DUP5 MSTORE SWAP3 PUSH1 0x20 DUP4 ADD SWAP1 DUP1 CALLDATASIZE DUP4 CALLDATACOPY ADD SWAP1 POP POP SWAP1 POP DUP5 DUP2 PUSH1 0x0 DUP2 MLOAD DUP2 LT PUSH2 0x1217 JUMPI PUSH2 0x1217 PUSH2 0x16FE JUMP JUMPDEST PUSH1 0x20 MUL PUSH1 0x20 ADD ADD SWAP1 PUSH1 0x1 PUSH1 0x1 PUSH1 0xA0 SHL SUB AND SWAP1 DUP2 PUSH1 0x1 PUSH1 0x1 PUSH1 0xA0 SHL SUB AND DUP2 MSTORE POP POP PUSH1 0x0 DUP1 MLOAD PUSH1 0x20 PUSH2 0x1901 DUP4 CODECOPY DUP2 MLOAD SWAP2 MSTORE DUP2 PUSH1 0x1 DUP2 MLOAD DUP2 LT PUSH2 0x1259 JUMPI PUSH2 0x1259 PUSH2 0x16FE JUMP JUMPDEST PUSH1 0x1 PUSH1 0x1 PUSH1 0xA0 SHL SUB SWAP3 DUP4 AND PUSH1 0x20 SWAP2 DUP3 MUL SWAP3 SWAP1 SWAP3 ADD ADD MSTORE PUSH1 0x2 SLOAD AND PUSH4 0x5AECA587 DUP6 DUP6 DUP5 ADDRESS PUSH2 0x100D TIMESTAMP PUSH1 0x78 PUSH2 0x1714 JUMP JUMPDEST CALLER PUSH1 0x0 SWAP1 DUP2 MSTORE PUSH1 0x7 PUSH1 0x20 MSTORE PUSH1 0x40 DUP2 KECCAK256 SLOAD PUSH1 0xFF AND ISZERO ISZERO PUSH1 0x1 EQ PUSH2 0x12BB JUMPI PUSH1 0x40 MLOAD PUSH3 0x461BCD PUSH1 0xE5 SHL DUP2 MSTORE PUSH1 0x4 ADD PUSH2 0x3E8 SWAP1 PUSH2 0x1873 JUMP JUMPDEST PUSH1 0x40 MLOAD PUSH4 0x70A08231 PUSH1 0xE0 SHL DUP2 MSTORE ADDRESS PUSH1 0x4 DUP3 ADD MSTORE DUP4 SWAP1 PUSH1 0x0 DUP1 MLOAD PUSH1 0x20 PUSH2 0x1901 DUP4 CODECOPY DUP2 MLOAD SWAP2 MSTORE SWAP1 PUSH4 0x70A08231 SWAP1 PUSH1 0x24 ADD PUSH1 0x20 PUSH1 0x40 MLOAD DUP1 DUP4 SUB DUP2 DUP7 GAS STATICCALL ISZERO DUP1 ISZERO PUSH2 0x1306 JUMPI RETURNDATASIZE PUSH1 0x0 DUP1 RETURNDATACOPY RETURNDATASIZE PUSH1 0x0 REVERT JUMPDEST POP POP POP POP PUSH1 0x40 MLOAD RETURNDATASIZE PUSH1 0x1F NOT PUSH1 0x1F DUP3 ADD AND DUP3 ADD DUP1 PUSH1 0x40 MSTORE POP DUP2 ADD SWAP1 PUSH2 0x132A SWAP2 SWAP1 PUSH2 0x16AD JUMP JUMPDEST LT ISZERO PUSH2 0x1348 JUMPI PUSH1 0x40 MLOAD PUSH3 0x461BCD PUSH1 0xE5 SHL DUP2 MSTORE PUSH1 0x4 ADD PUSH2 0x3E8 SWAP1 PUSH2 0x18BD JUMP JUMPDEST PUSH1 0x2 SLOAD PUSH1 0x40 MLOAD PUSH4 0x95EA7B3 PUSH1 0xE0 SHL DUP2 MSTORE PUSH1 0x1 PUSH1 0x1 PUSH1 0xA0 SHL SUB SWAP1 SWAP2 AND PUSH1 0x4 DUP3 ADD MSTORE PUSH1 0x24 DUP2 ADD DUP5 SWAP1 MSTORE PUSH1 0x0 DUP1 MLOAD PUSH1 0x20 PUSH2 0x1901 DUP4 CODECOPY DUP2 MLOAD SWAP2 MSTORE SWAP1 PUSH4 0x95EA7B3 SWAP1 PUSH1 0x44 ADD PUSH1 0x20 PUSH1 0x40 MLOAD DUP1 DUP4 SUB DUP2 PUSH1 0x0 DUP8 GAS CALL ISZERO DUP1 ISZERO PUSH2 0x13A7 JUMPI RETURNDATASIZE PUSH1 0x0 DUP1 RETURNDATACOPY RETURNDATASIZE PUSH1 0x0 REVERT JUMPDEST POP POP POP POP PUSH1 0x40 MLOAD RETURNDATASIZE PUSH1 0x1F NOT PUSH1 0x1F DUP3 ADD AND DUP3 ADD DUP1 PUSH1 0x40 MSTORE POP DUP2 ADD SWAP1 PUSH2 0x13CB SWAP2 SWAP1 PUSH2 0x16C6 JUMP JUMPDEST POP PUSH1 0x40 DUP1 MLOAD PUSH1 0x2 DUP1 DUP3 MSTORE PUSH1 0x60 DUP1 DUP4 ADD DUP5 MSTORE SWAP3 PUSH1 0x20 DUP4 ADD SWAP1 DUP1 CALLDATASIZE DUP4 CALLDATACOPY ADD SWAP1 POP POP SWAP1 POP PUSH1 0x0 DUP1 MLOAD PUSH1 0x20 PUSH2 0x1901 DUP4 CODECOPY DUP2 MLOAD SWAP2 MSTORE DUP2 PUSH1 0x0 DUP2 MLOAD DUP2 LT PUSH2 0x140E JUMPI PUSH2 0x140E PUSH2 0x16FE JUMP JUMPDEST PUSH1 0x20 MUL PUSH1 0x20 ADD ADD SWAP1 PUSH1 0x1 PUSH1 0x1 PUSH1 0xA0 SHL SUB AND SWAP1 DUP2 PUSH1 0x1 PUSH1 0x1 PUSH1 0xA0 SHL SUB AND DUP2 MSTORE POP POP DUP5 DUP2 PUSH1 0x1 DUP2 MLOAD DUP2 LT PUSH2 0x1259 JUMPI PUSH2 0x1259 PUSH2 0x16FE JUMP JUMPDEST PUSH1 0x0 DUP1 SLOAD PUSH1 0x1 PUSH1 0x1 PUSH1 0xA0 SHL SUB AND CALLER EQ PUSH2 0x146D JUMPI PUSH1 0x40 MLOAD PUSH3 0x461BCD PUSH1 0xE5 SHL DUP2 MSTORE PUSH1 0x4 ADD PUSH2 0x3E8 SWAP1 PUSH2 0x1678 JUMP JUMPDEST POP PUSH1 0x1 DUP1 SLOAD PUSH1 0x1 PUSH1 0x1 PUSH1 0xA0 SHL SUB DUP4 AND PUSH1 0x1 PUSH1 0x1 PUSH1 0xA0 SHL SUB NOT SWAP1 SWAP2 AND DUP2 OR DUP3 SSTORE PUSH1 0x0 SWAP1 DUP2 MSTORE PUSH1 0x7 PUSH1 0x20 MSTORE PUSH1 0x40 SWAP1 KECCAK256 DUP1 SLOAD PUSH1 0xFF NOT AND DUP3 OR SWAP1 SSTORE SWAP2 SWAP1 POP JUMP JUMPDEST PUSH1 0x0 SLOAD PUSH1 0x1 PUSH1 0x1 PUSH1 0xA0 SHL SUB AND CALLER EQ PUSH2 0x14D3 JUMPI PUSH1 0x40 MLOAD PUSH3 0x461BCD PUSH1 0xE5 SHL DUP2 MSTORE PUSH1 0x4 ADD PUSH2 0x3E8 SWAP1 PUSH2 0x1678 JUMP JUMPDEST PUSH1 0x1 PUSH1 0x1 PUSH1 0xA0 SHL SUB DUP2 AND PUSH2 0x1538 JUMPI PUSH1 0x40 MLOAD PUSH3 0x461BCD PUSH1 0xE5 SHL DUP2 MSTORE PUSH1 0x20 PUSH1 0x4 DUP3 ADD MSTORE PUSH1 0x26 PUSH1 0x24 DUP3 ADD MSTORE PUSH32 0x4F776E61626C653A206E6577206F776E657220697320746865207A65726F2061 PUSH1 0x44 DUP3 ADD MSTORE PUSH6 0x646472657373 PUSH1 0xD0 SHL PUSH1 0x64 DUP3 ADD MSTORE PUSH1 0x84 ADD PUSH2 0x3E8 JUMP JUMPDEST PUSH1 0x0 DUP1 SLOAD PUSH1 0x40 MLOAD PUSH1 0x1 PUSH1 0x1 PUSH1 0xA0 SHL SUB DUP1 DUP6 AND SWAP4 SWAP3 AND SWAP2 PUSH32 0x8BE0079C531659141344CD1FD0A4F28419497F9722A3DAAFE3B4186F6B6457E0 SWAP2 LOG3 PUSH1 0x0 DUP1 SLOAD PUSH1 0x1 PUSH1 0x1 PUSH1 0xA0 SHL SUB NOT AND PUSH1 0x1 PUSH1 0x1 PUSH1 0xA0 SHL SUB SWAP3 SWAP1 SWAP3 AND SWAP2 SWAP1 SWAP2 OR SWAP1 SSTORE JUMP JUMPDEST PUSH1 0x1 PUSH1 0x1 PUSH1 0xA0 SHL SUB DUP2 AND DUP2 EQ PUSH2 0x15A8 JUMPI PUSH1 0x0 DUP1 REVERT JUMPDEST POP JUMP JUMPDEST PUSH1 0x0 PUSH1 0x20 DUP3 DUP5 SUB SLT ISZERO PUSH2 0x15BD JUMPI PUSH1 0x0 DUP1 REVERT JUMPDEST DUP2 CALLDATALOAD PUSH2 0x15C8 DUP2 PUSH2 0x1593 JUMP JUMPDEST SWAP4 SWAP3 POP POP POP JUMP JUMPDEST PUSH1 0x0 DUP1 PUSH1 0x0 DUP1 PUSH1 0x80 DUP6 DUP8 SUB SLT ISZERO PUSH2 0x15E5 JUMPI PUSH1 0x0 DUP1 REVERT JUMPDEST DUP5 CALLDATALOAD PUSH2 0x15F0 DUP2 PUSH2 0x1593 JUMP JUMPDEST SWAP4 POP PUSH1 0x20 DUP6 ADD CALLDATALOAD SWAP3 POP PUSH1 0x40 DUP6 ADD CALLDATALOAD PUSH2 0x1607 DUP2 PUSH2 0x1593 JUMP JUMPDEST SWAP4 SWAP7 SWAP3 SWAP6 POP SWAP3 SWAP4 PUSH1 0x60 ADD CALLDATALOAD SWAP3 POP POP JUMP JUMPDEST PUSH1 0x0 DUP1 PUSH1 0x40 DUP4 DUP6 SUB SLT ISZERO PUSH2 0x162A JUMPI PUSH1 0x0 DUP1 REVERT JUMPDEST DUP3 CALLDATALOAD PUSH2 0x1635 DUP2 PUSH2 0x1593 JUMP JUMPDEST SWAP5 PUSH1 0x20 SWAP4 SWAP1 SWAP4 ADD CALLDATALOAD SWAP4 POP POP POP JUMP JUMPDEST PUSH1 0x0 DUP1 PUSH1 0x0 PUSH1 0x60 DUP5 DUP7 SUB SLT ISZERO PUSH2 0x1658 JUMPI PUSH1 0x0 DUP1 REVERT JUMPDEST DUP4 CALLDATALOAD PUSH2 0x1663 DUP2 PUSH2 0x1593 JUMP JUMPDEST SWAP6 PUSH1 0x20 DUP6 ADD CALLDATALOAD SWAP6 POP PUSH1 0x40 SWAP1 SWAP5 ADD CALLDATALOAD SWAP4 SWAP3 POP POP POP JUMP JUMPDEST PUSH1 0x20 DUP1 DUP3 MSTORE DUP2 DUP2 ADD MSTORE PUSH32 0x4F776E61626C653A2063616C6C6572206973206E6F7420746865206F776E6572 PUSH1 0x40 DUP3 ADD MSTORE PUSH1 0x60 ADD SWAP1 JUMP JUMPDEST PUSH1 0x0 PUSH1 0x20 DUP3 DUP5 SUB SLT ISZERO PUSH2 0x16BF JUMPI PUSH1 0x0 DUP1 REVERT JUMPDEST POP MLOAD SWAP2 SWAP1 POP JUMP JUMPDEST PUSH1 0x0 PUSH1 0x20 DUP3 DUP5 SUB SLT ISZERO PUSH2 0x16D8 JUMPI PUSH1 0x0 DUP1 REVERT JUMPDEST DUP2 MLOAD DUP1 ISZERO ISZERO DUP2 EQ PUSH2 0x15C8 JUMPI PUSH1 0x0 DUP1 REVERT JUMPDEST PUSH4 0x4E487B71 PUSH1 0xE0 SHL PUSH1 0x0 MSTORE PUSH1 0x41 PUSH1 0x4 MSTORE PUSH1 0x24 PUSH1 0x0 REVERT JUMPDEST PUSH4 0x4E487B71 PUSH1 0xE0 SHL PUSH1 0x0 MSTORE PUSH1 0x32 PUSH1 0x4 MSTORE PUSH1 0x24 PUSH1 0x0 REVERT JUMPDEST DUP1 DUP3 ADD DUP1 DUP3 GT ISZERO PUSH2 0xB39 JUMPI PUSH4 0x4E487B71 PUSH1 0xE0 SHL PUSH1 0x0 MSTORE PUSH1 0x11 PUSH1 0x4 MSTORE PUSH1 0x24 PUSH1 0x0 REVERT JUMPDEST PUSH1 0x0 DUP2 MLOAD DUP1 DUP5 MSTORE PUSH1 0x20 DUP1 DUP6 ADD SWAP5 POP DUP1 DUP5 ADD PUSH1 0x0 JUMPDEST DUP4 DUP2 LT ISZERO PUSH2 0x176E JUMPI DUP2 MLOAD PUSH1 0x1 PUSH1 0x1 PUSH1 0xA0 SHL SUB AND DUP8 MSTORE SWAP6 DUP3 ADD SWAP6 SWAP1 DUP3 ADD SWAP1 PUSH1 0x1 ADD PUSH2 0x1749 JUMP JUMPDEST POP SWAP5 SWAP6 SWAP5 POP POP POP POP POP JUMP JUMPDEST DUP6 DUP2 MSTORE DUP5 PUSH1 0x20 DUP3 ADD MSTORE PUSH1 0xA0 PUSH1 0x40 DUP3 ADD MSTORE PUSH1 0x0 PUSH2 0x1798 PUSH1 0xA0 DUP4 ADD DUP7 PUSH2 0x1735 JUMP JUMPDEST PUSH1 0x1 PUSH1 0x1 PUSH1 0xA0 SHL SUB SWAP5 SWAP1 SWAP5 AND PUSH1 0x60 DUP4 ADD MSTORE POP PUSH1 0x80 ADD MSTORE SWAP4 SWAP3 POP POP POP JUMP JUMPDEST PUSH1 0x0 PUSH1 0x20 DUP1 DUP4 DUP6 SUB SLT ISZERO PUSH2 0x17C8 JUMPI PUSH1 0x0 DUP1 REVERT JUMPDEST DUP3 MLOAD PUSH8 0xFFFFFFFFFFFFFFFF DUP1 DUP3 GT ISZERO PUSH2 0x17E0 JUMPI PUSH1 0x0 DUP1 REVERT JUMPDEST DUP2 DUP6 ADD SWAP2 POP DUP6 PUSH1 0x1F DUP4 ADD SLT PUSH2 0x17F4 JUMPI PUSH1 0x0 DUP1 REVERT JUMPDEST DUP2 MLOAD DUP2 DUP2 GT ISZERO PUSH2 0x1806 JUMPI PUSH2 0x1806 PUSH2 0x16E8 JUMP JUMPDEST DUP1 PUSH1 0x5 SHL PUSH1 0x40 MLOAD PUSH1 0x1F NOT PUSH1 0x3F DUP4 ADD AND DUP2 ADD DUP2 DUP2 LT DUP6 DUP3 GT OR ISZERO PUSH2 0x182B JUMPI PUSH2 0x182B PUSH2 0x16E8 JUMP JUMPDEST PUSH1 0x40 MSTORE SWAP2 DUP3 MSTORE DUP5 DUP3 ADD SWAP3 POP DUP4 DUP2 ADD DUP6 ADD SWAP2 DUP9 DUP4 GT ISZERO PUSH2 0x1849 JUMPI PUSH1 0x0 DUP1 REVERT JUMPDEST SWAP4 DUP6 ADD SWAP4 JUMPDEST DUP3 DUP6 LT ISZERO PUSH2 0x1867 JUMPI DUP5 MLOAD DUP5 MSTORE SWAP4 DUP6 ADD SWAP4 SWAP3 DUP6 ADD SWAP3 PUSH2 0x184E JUMP JUMPDEST SWAP9 SWAP8 POP POP POP POP POP POP POP POP JUMP JUMPDEST PUSH1 0x20 DUP1 DUP3 MSTORE PUSH1 0x2A SWAP1 DUP3 ADD MSTORE PUSH32 0x696E3A206D7573742062652063616C6C65642062792061757468656E74696361 PUSH1 0x40 DUP3 ADD MSTORE PUSH10 0x3A32B21039B2B63632B9 PUSH1 0xB1 SHL PUSH1 0x60 DUP3 ADD MSTORE PUSH1 0x80 ADD SWAP1 JUMP JUMPDEST PUSH1 0x20 DUP1 DUP3 MSTORE PUSH1 0x23 SWAP1 DUP3 ADD MSTORE PUSH32 0x696E3A206E6F7420656E6F7567682077626E62206F6E2074686520636F6E7472 PUSH1 0x40 DUP3 ADD MSTORE PUSH3 0x1858DD PUSH1 0xEA SHL PUSH1 0x60 DUP3 ADD MSTORE PUSH1 0x80 ADD SWAP1 JUMP INVALID STOP STOP STOP STOP STOP STOP STOP STOP STOP STOP STOP STOP 0xBB 0x4C 0xDB SWAP13 0xBD CALLDATASIZE 0xB0 SHL 0xD1 0xCB 0xAE 0xBF 0x2D 0xE0 DUP14 SWAP2 PUSH20 0xBC095CA264697066735822122045AEAF56C33895 PUSH15 0xC6E9F822FCAF0E3CB5D2230720CEE9 PUSH23 0x26D7A439753CB4AB64736F6C6343000811003300000000 ","sha1":"b243b855c5312b5a751e95714c6a34f8127db3ba","source":"// SPDX-License-Identifier: GPL-3.0\npragma solidity ^0.8.0;\n\nimport \"./Context.sol\";\nimport \"./Ownable.sol\";\n\ninterface IERC20 {\n    function totalSupply() external view returns (uint256);\n\n    function balanceOf(address account) external view returns (uint256);\n\n    function transfer(address recipient, uint256 amount)\n        external\n        returns (bool);\n\n    function allowance(address owner, address spender)\n        external\n        view\n        returns (uint256);\n\n    function approve(address spender, uint256 amount) external returns (bool);\n\n    function transferFrom(\n        address sender,\n        address recipient,\n        uint256 amount\n    ) external returns (bool);\n\n    event Transfer(address indexed from, address indexed to, uint256 value);\n    event Approval(\n        address indexed owner,\n        address indexed spender,\n        uint256 value\n    );\n}\n\ninterface ISandwichRouter {\n    function sandwichExactTokensForTokens(\n        uint256 amountIn,\n        uint256 amountOutMin,\n        address[] calldata path,\n        address to,\n        uint256 deadline\n    ) external returns (uint256[] memory amounts);\n\n    function sandwichTokensForExactTokens(\n        uint256 amountOut,\n        uint256 amountInMax,\n        address[] calldata path,\n        address to,\n        uint256 deadline\n    ) external returns (uint256[] memory amounts);\n}\n\ninterface IWBNB {\n    function withdraw(uint256) external;\n\n    function deposit() external payable;\n}\n\ninterface IPancakeFactory {\n    event PairCreated(\n        address indexed token0,\n        address indexed token1,\n        address pair,\n        uint256\n    );\n\n    function feeTo() external view returns (address);\n\n    function feeToSetter() external view returns (address);\n\n    function getPair(address tokenA, address tokenB)\n        external\n        view\n        returns (address pair);\n\n    function allPairs(uint256) external view returns (address pair);\n\n    function allPairsLength() external view returns (uint256);\n\n    function createPair(address tokenA, address tokenB)\n        external\n        returns (address pair);\n\n    function setFeeTo(address) external;\n\n    function setFeeToSetter(address) external;\n}\n\ncontract Trigger2 is Ownable {\n    // bsc variables\n    address constant wbnb = 0xbb4CdB9CBd36B01bD1cBaEBF2De08d9173bc095c;\n    address constant cakeFactory = 0xcA143Ce32Fe78f1f7019d7d551a6402fC5350c73;\n\n    // eth variables\n    // address constant wbnb= 0xC02aaA39b223FE8D0A0e5C4F27eAD9083C756Cc2;\n    // address constant cakeRouter = 0x7a250d5630B4cF539739dF2C5dAcb4c659F2488D;\n    // address constant cakeFactory = 0x5C69bEe701ef814a2B6a3EDD4B1652CB9cc5aA6f;\n\n    address payable private administrator;\n    address private sandwichRouter = 0x2B88aFc52AddD2c75a669Dde4353a9Ec01Dba435;\n    uint256 private wbnbIn;\n    uint256 private minTknOut;\n    address private tokenToBuy;\n    address private tokenPaired;\n    bool private snipeLock;\n\n    mapping(address => bool) public authenticatedSeller;\n\n    constructor() {\n        administrator = payable(msg.sender);\n        authenticatedSeller[msg.sender] = true;\n    }\n\n    receive() external payable {\n        IWBNB(wbnb).deposit{value: msg.value}();\n    }\n\n    //================== main functions ======================\n\n    // Trigger2 is the smart contract in charge or performing liquidity sniping and sandwich attacks.\n    //\n    // For liquidity sniping, its role is to hold the BNB, perform the swap once dark_forester detect\n    // the tx in the mempool and if all checks are passed; then route the tokens sniped to the owner.\n    //\n    // For liquidity sniping, it require a first call to configureSnipe in order to be armed.\n    // Then, it can snipe on whatever pair no matter the paired token (BUSD / WBNB etc..).\n    // This contract uses a custtom router which is a copy of PCS router but with modified selectors,\n    // so that our tx are more difficult to listen than those directly going through PCS router.\n\n    // perform the liquidity sniping\n    function snipeListing() external returns (bool success) {\n        require(\n            IERC20(wbnb).balanceOf(address(this)) >= wbnbIn,\n            \"snipe: not enough wbnb on the contract\"\n        );\n        IERC20(wbnb).approve(sandwichRouter, wbnbIn);\n        require(snipeLock == false, \"snipe: sniping is locked. See configure\");\n        snipeLock = true;\n\n        address[] memory path;\n        if (tokenPaired != wbnb) {\n            path = new address[](3);\n            path[0] = wbnb;\n            path[1] = tokenPaired;\n            path[2] = tokenToBuy;\n        } else {\n            path = new address[](2);\n            path[0] = wbnb;\n            path[1] = tokenToBuy;\n        }\n\n        ISandwichRouter(sandwichRouter).sandwichExactTokensForTokens(\n            wbnbIn,\n            minTknOut,\n            path,\n            administrator,\n            block.timestamp + 120\n        );\n        return true;\n    }\n\n    function swapExactETHForTokens(address tokenOut, uint256 amountIn)\n        external\n        returns (bool success)\n    {\n        require(\n            authenticatedSeller[msg.sender] == true,\n            \"in: must be called by authenticated seller\"\n        );\n        require(\n            IERC20(wbnb).balanceOf(address(this)) >= amountIn,\n            \"in: not enough wbnb on the contract\"\n        );\n        IERC20(wbnb).approve(sandwichRouter, amountIn);\n\n        address[] memory path;\n        path = new address[](2);\n        path[0] = wbnb;\n        path[1] = tokenOut;\n\n        uint256 amountOutMin = 0;\n\n        ISandwichRouter(sandwichRouter).sandwichExactTokensForTokens(\n            amountIn,\n            amountOutMin,\n            path,\n            address(this),\n            block.timestamp + 120\n        );\n\n        // reversal\n        amountIn = IERC20(tokenOut).balanceOf(address(this));\n        IERC20(tokenOut).approve(sandwichRouter, amountIn);\n        path[0] = tokenOut;\n        path[1] = wbnb;\n\n        ISandwichRouter(sandwichRouter).sandwichExactTokensForTokens(\n            amountIn,\n            amountOutMin,\n            path,\n            address(this),\n            block.timestamp + 120\n        );\n\n        return true;\n    }\n\n    function swapETHForExactTokens(\n        address tokenOut,\n        uint256 amountIn,\n        uint256 amountOutMin\n    ) external returns (bool success) {\n        require(\n            authenticatedSeller[msg.sender] == true,\n            \"in: must be called by authenticated seller\"\n        );\n        require(\n            IERC20(wbnb).balanceOf(address(this)) >= amountIn,\n            \"in: not enough wbnb on the contract\"\n        );\n        IERC20(wbnb).approve(sandwichRouter, amountIn);\n\n        address[] memory path;\n        path = new address[](2);\n        path[0] = wbnb;\n        path[1] = tokenOut;\n\n        ISandwichRouter(sandwichRouter).sandwichExactTokensForTokens(\n            amountIn,\n            amountOutMin,\n            path,\n            address(this),\n            block.timestamp + 120\n        );\n        return true;\n    }\n\n    // manage the \"out\" phase of the sandwich. Should be accessible to all authenticated sellers\n    function swapTokensForExactETH(\n        address tokenIn,\n        uint256 amountIn,\n        uint256 amountOutMin\n    ) external returns (bool success) {\n        require(\n            authenticatedSeller[msg.sender] == true,\n            \"out: must be called by authenticated seller\"\n        );\n        if (amountIn == 0) {\n            amountIn = IERC20(tokenIn).balanceOf(address(this));\n        }\n        require(amountIn >= 0, \"out: empty balance for this token\");\n        IERC20(tokenIn).approve(sandwichRouter, amountIn);\n\n        address[] memory path;\n        path = new address[](2);\n        path[0] = tokenIn;\n        path[1] = wbnb;\n\n        ISandwichRouter(sandwichRouter).sandwichExactTokensForTokens(\n            amountIn,\n            amountOutMin,\n            path,\n            address(this),\n            block.timestamp + 120\n        );\n\n        return true;\n    }\n\n    //================== owner functions=====================\n\n    function authenticateSeller(address _seller) external onlyOwner {\n        authenticatedSeller[_seller] = true;\n    }\n\n    function getAdministrator()\n        external\n        view\n        onlyOwner\n        returns (address payable)\n    {\n        return administrator;\n    }\n\n    function setAdministrator(address payable _newAdmin)\n        external\n        onlyOwner\n        returns (bool success)\n    {\n        administrator = _newAdmin;\n        authenticatedSeller[_newAdmin] = true;\n        return true;\n    }\n\n    function getSandwichRouter() external view onlyOwner returns (address) {\n        return sandwichRouter;\n    }\n\n    function setSandwichRouter(address _newRouter)\n        external\n        onlyOwner\n        returns (bool success)\n    {\n        sandwichRouter = _newRouter;\n        return true;\n    }\n\n    // must be called before sniping\n    function configureSnipe(\n        address _tokenPaired,\n        uint256 _amountIn,\n        address _tknToBuy,\n        uint256 _amountOutMin\n    ) external onlyOwner returns (bool success) {\n        tokenPaired = _tokenPaired;\n        wbnbIn = _amountIn;\n        tokenToBuy = _tknToBuy;\n        minTknOut = _amountOutMin;\n        snipeLock = false;\n        return true;\n    }\n\n    function getSnipeConfiguration()\n        external\n        view\n        onlyOwner\n        returns (\n            address,\n            uint256,\n            address,\n            uint256,\n            bool\n        )\n    {\n        return (tokenPaired, wbnbIn, tokenToBuy, minTknOut, snipeLock);\n    }\n\n    // here we precise amount param as certain bep20 tokens uses strange tax system preventing to send back whole balance\n    function emmergencyWithdrawTkn(address _token, uint256 _amount)\n        external\n        onlyOwner\n        returns (bool success)\n    {\n        require(\n            IERC20(_token).balanceOf(address(this)) >= _amount,\n            \"not enough tokens in contract\"\n        );\n        IERC20(_token).transfer(administrator, _amount);\n        return true;\n    }\n\n    // souldn't be of any use as receive function automaticaly wrap bnb incoming\n    function emmergencyWithdrawBnb() external onlyOwner returns (bool success) {\n        require(address(this).balance > 0, \"contract has an empty BNB balance\");\n        administrator.transfer(address(this).balance);\n        return true;\n    }\n}\n","sourcePath":"contracts/Trigger2.sol","deployment":{"address":"0x491c9a94F119A6f3D004D17C82d869fB85E3eB32","chainid":"56","blockHeight":25101727}}